{
  "_format": "hh-sol-artifact-1",
  "contractName": "AuraCoin",
  "sourceName": "contracts/ERC20Aura.sol",
  "abi": [
    {
      "inputs": [],
      "stateMutability": "nonpayable",
      "type": "constructor"
    },
    {
      "anonymous": false,
      "inputs": [
        {
          "indexed": true,
          "internalType": "address",
          "name": "owner",
          "type": "address"
        },
        {
          "indexed": true,
          "internalType": "address",
          "name": "spender",
          "type": "address"
        },
        {
          "indexed": false,
          "internalType": "uint256",
          "name": "value",
          "type": "uint256"
        }
      ],
      "name": "Approval",
      "type": "event"
    },
    {
      "anonymous": false,
      "inputs": [
        {
          "indexed": true,
          "internalType": "address",
          "name": "user",
          "type": "address"
        },
        {
          "indexed": false,
          "internalType": "uint256",
          "name": "amount",
          "type": "uint256"
        }
      ],
      "name": "BonusDistributed",
      "type": "event"
    },
    {
      "anonymous": false,
      "inputs": [
        {
          "indexed": true,
          "internalType": "address",
          "name": "from",
          "type": "address"
        },
        {
          "indexed": true,
          "internalType": "address",
          "name": "to",
          "type": "address"
        },
        {
          "indexed": false,
          "internalType": "uint256",
          "name": "value",
          "type": "uint256"
        }
      ],
      "name": "Transfer",
      "type": "event"
    },
    {
      "inputs": [
        {
          "internalType": "address",
          "name": "owner",
          "type": "address"
        },
        {
          "internalType": "address",
          "name": "spender",
          "type": "address"
        }
      ],
      "name": "allowance",
      "outputs": [
        {
          "internalType": "uint256",
          "name": "",
          "type": "uint256"
        }
      ],
      "stateMutability": "view",
      "type": "function"
    },
    {
      "inputs": [
        {
          "internalType": "address",
          "name": "spender",
          "type": "address"
        },
        {
          "internalType": "uint256",
          "name": "amount",
          "type": "uint256"
        }
      ],
      "name": "approve",
      "outputs": [
        {
          "internalType": "bool",
          "name": "",
          "type": "bool"
        }
      ],
      "stateMutability": "nonpayable",
      "type": "function"
    },
    {
      "inputs": [
        {
          "internalType": "address",
          "name": "account",
          "type": "address"
        }
      ],
      "name": "balanceOf",
      "outputs": [
        {
          "internalType": "uint256",
          "name": "",
          "type": "uint256"
        }
      ],
      "stateMutability": "view",
      "type": "function"
    },
    {
      "inputs": [
        {
          "internalType": "uint256",
          "name": "amount",
          "type": "uint256"
        },
        {
          "internalType": "bytes",
          "name": "signature",
          "type": "bytes"
        }
      ],
      "name": "claimWithSignature",
      "outputs": [],
      "stateMutability": "nonpayable",
      "type": "function"
    },
    {
      "inputs": [],
      "name": "decimals",
      "outputs": [
        {
          "internalType": "uint8",
          "name": "",
          "type": "uint8"
        }
      ],
      "stateMutability": "view",
      "type": "function"
    },
    {
      "inputs": [
        {
          "internalType": "address",
          "name": "spender",
          "type": "address"
        },
        {
          "internalType": "uint256",
          "name": "subtractedValue",
          "type": "uint256"
        }
      ],
      "name": "decreaseAllowance",
      "outputs": [
        {
          "internalType": "bool",
          "name": "",
          "type": "bool"
        }
      ],
      "stateMutability": "nonpayable",
      "type": "function"
    },
    {
      "inputs": [
        {
          "internalType": "address",
          "name": "spender",
          "type": "address"
        },
        {
          "internalType": "uint256",
          "name": "addedValue",
          "type": "uint256"
        }
      ],
      "name": "increaseAllowance",
      "outputs": [
        {
          "internalType": "bool",
          "name": "",
          "type": "bool"
        }
      ],
      "stateMutability": "nonpayable",
      "type": "function"
    },
    {
      "inputs": [],
      "name": "name",
      "outputs": [
        {
          "internalType": "string",
          "name": "",
          "type": "string"
        }
      ],
      "stateMutability": "view",
      "type": "function"
    },
    {
      "inputs": [],
      "name": "signerAddress",
      "outputs": [
        {
          "internalType": "address",
          "name": "",
          "type": "address"
        }
      ],
      "stateMutability": "view",
      "type": "function"
    },
    {
      "inputs": [],
      "name": "symbol",
      "outputs": [
        {
          "internalType": "string",
          "name": "",
          "type": "string"
        }
      ],
      "stateMutability": "view",
      "type": "function"
    },
    {
      "inputs": [],
      "name": "totalSupply",
      "outputs": [
        {
          "internalType": "uint256",
          "name": "",
          "type": "uint256"
        }
      ],
      "stateMutability": "view",
      "type": "function"
    },
    {
      "inputs": [
        {
          "internalType": "address",
          "name": "recipient",
          "type": "address"
        },
        {
          "internalType": "uint256",
          "name": "amount",
          "type": "uint256"
        }
      ],
      "name": "transfer",
      "outputs": [
        {
          "internalType": "bool",
          "name": "",
          "type": "bool"
        }
      ],
      "stateMutability": "nonpayable",
      "type": "function"
    },
    {
      "inputs": [
        {
          "internalType": "address",
          "name": "sender",
          "type": "address"
        },
        {
          "internalType": "address",
          "name": "recipient",
          "type": "address"
        },
        {
          "internalType": "uint256",
          "name": "amount",
          "type": "uint256"
        }
      ],
      "name": "transferFrom",
      "outputs": [
        {
          "internalType": "bool",
          "name": "",
          "type": "bool"
        }
      ],
      "stateMutability": "nonpayable",
      "type": "function"
    }
  ],
  "bytecode": "0x60806040523480156200001157600080fd5b50604080518082018252600881526720bab930a1b7b4b760c11b6020808301918252835180850190945260018452604160f81b9084015281519192916200005b9160039162000244565b5080516200007190600490602084019062000244565b505060058054601260ff1990911617610100600160a81b0319166101003390810291909117909155620000b191506a084595161401484a000000620000ce565b620000c8306a084595161401484a000000620000ce565b620002f0565b6001600160a01b0382166200012a576040805162461bcd60e51b815260206004820152601f60248201527f45524332303a206d696e7420746f20746865207a65726f206164647265737300604482015290519081900360640190fd5b6200013860008383620001dd565b6200015481600254620001e260201b6200078b1790919060201c565b6002556001600160a01b03821660009081526020818152604090912054620001879183906200078b620001e2821b17901c565b6001600160a01b0383166000818152602081815260408083209490945583518581529351929391927fddf252ad1be2c89b69c2b068fc378daa952ba7f163c4a11628f55a4df523b3ef9281900390910190a35050565b505050565b6000828201838110156200023d576040805162461bcd60e51b815260206004820152601b60248201527f536166654d6174683a206164646974696f6e206f766572666c6f770000000000604482015290519081900360640190fd5b9392505050565b828054600181600116156101000203166002900490600052602060002090601f0160209004810192826200027c5760008555620002c7565b82601f106200029757805160ff1916838001178555620002c7565b82800160010185558215620002c7579182015b82811115620002c7578251825591602001919060010190620002aa565b50620002d5929150620002d9565b5090565b5b80821115620002d55760008155600101620002da565b610e9d80620003006000396000f3fe608060405234801561001057600080fd5b50600436106100df5760003560e01c80635b7633d01161008c578063a457c2d711610066578063a457c2d71461028d578063a9059cbb146102b9578063af04d0ce146102e5578063dd62ed3e14610394576100df565b80635b7633d01461023b57806370a082311461025f57806395d89b4114610285576100df565b806323b872dd116100bd57806323b872dd146101bb578063313ce567146101f1578063395093511461020f576100df565b806306fdde03146100e4578063095ea7b31461016157806318160ddd146101a1575b600080fd5b6100ec6103c2565b6040805160208082528351818301528351919283929083019185019080838360005b8381101561012657818101518382015260200161010e565b50505050905090810190601f1680156101535780820380516001836020036101000a031916815260200191505b509250505060405180910390f35b61018d6004803603604081101561017757600080fd5b506001600160a01b038135169060200135610458565b604080519115158252519081900360200190f35b6101a9610475565b60408051918252519081900360200190f35b61018d600480360360608110156101d157600080fd5b506001600160a01b0381358116916020810135909116906040013561047b565b6101f9610502565b6040805160ff9092168252519081900360200190f35b61018d6004803603604081101561022557600080fd5b506001600160a01b03813516906020013561050b565b610243610559565b604080516001600160a01b039092168252519081900360200190f35b6101a96004803603602081101561027557600080fd5b50356001600160a01b031661056d565b6100ec610588565b61018d600480360360408110156102a357600080fd5b506001600160a01b0381351690602001356105e9565b61018d600480360360408110156102cf57600080fd5b506001600160a01b038135169060200135610651565b610392600480360360408110156102fb57600080fd5b8135919081019060408101602082013564010000000081111561031d57600080fd5b82018360208201111561032f57600080fd5b8035906020019184600183028401116401000000008311171561035157600080fd5b91908080601f016020809104026020016040519081016040528093929190818152602001838380828437600092019190915250929550610665945050505050565b005b6101a9600480360360408110156103aa57600080fd5b506001600160a01b0381358116916020013516610760565b60038054604080516020601f600260001961010060018816150201909516949094049384018190048102820181019092528281526060939092909183018282801561044e5780601f106104235761010080835404028352916020019161044e565b820191906000526020600020905b81548152906001019060200180831161043157829003601f168201915b5050505050905090565b600061046c6104656107ec565b84846107f0565b50600192915050565b60025490565b60006104888484846108dc565b6104f8846104946107ec565b6104f385604051806060016040528060288152602001610dd2602891396001600160a01b038a166000908152600160205260408120906104d26107ec565b6001600160a01b031681526020810191909152604001600020549190610a37565b6107f0565b5060019392505050565b60055460ff1690565b600061046c6105186107ec565b846104f385600160006105296107ec565b6001600160a01b03908116825260208083019390935260409182016000908120918c16815292529020549061078b565b60055461010090046001600160a01b031681565b6001600160a01b031660009081526020819052604090205490565b60048054604080516020601f600260001961010060018816150201909516949094049384018190048102820181019092528281526060939092909183018282801561044e5780601f106104235761010080835404028352916020019161044e565b600061046c6105f66107ec565b846104f385604051806060016040528060258152602001610e4360259139600160006106206107ec565b6001600160a01b03908116825260208083019390935260409182016000908120918d16815292529020549190610a37565b600061046c61065e6107ec565b84846108dc565b604080513360601b6020808301919091526034808301869052835180840390910181526054909201909252805191012060006106a082610ace565b905060006106ae8285610b1f565b6005549091506001600160a01b038083166101009092041614610718576040805162461bcd60e51b815260206004820152601160248201527f496e76616c6964205369676e6174757265000000000000000000000000000000604482015290519081900360640190fd5b6107233033876108dc565b60408051868152905133917f8e3a90176f65d9f17b62ae9970b50ff21e66bba05788435310f6e12c942b0b37919081900360200190a25050505050565b6001600160a01b03918216600090815260016020908152604080832093909416825291909152205490565b6000828201838110156107e5576040805162461bcd60e51b815260206004820152601b60248201527f536166654d6174683a206164646974696f6e206f766572666c6f770000000000604482015290519081900360640190fd5b9392505050565b3390565b6001600160a01b0383166108355760405162461bcd60e51b8152600401808060200182810382526024815260200180610e1f6024913960400191505060405180910390fd5b6001600160a01b03821661087a5760405162461bcd60e51b8152600401808060200182810382526022815260200180610d466022913960400191505060405180910390fd5b6001600160a01b03808416600081815260016020908152604080832094871680845294825291829020859055815185815291517f8c5be1e5ebec7d5bd14f71427d1e84f3dd0314c0f7b2291e5b200ac8c7c3b9259281900390910190a3505050565b6001600160a01b0383166109215760405162461bcd60e51b8152600401808060200182810382526025815260200180610dfa6025913960400191505060405180910390fd5b6001600160a01b0382166109665760405162461bcd60e51b8152600401808060200182810382526023815260200180610d236023913960400191505060405180910390fd5b610971838383610b9f565b6109ae81604051806060016040528060268152602001610d68602691396001600160a01b0386166000908152602081905260409020549190610a37565b6001600160a01b0380851660009081526020819052604080822093909355908416815220546109dd908261078b565b6001600160a01b038084166000818152602081815260409182902094909455805185815290519193928716927fddf252ad1be2c89b69c2b068fc378daa952ba7f163c4a11628f55a4df523b3ef92918290030190a3505050565b60008184841115610ac65760405162461bcd60e51b81526004018080602001828103825283818151815260200191508051906020019080838360005b83811015610a8b578181015183820152602001610a73565b50505050905090810190601f168015610ab85780820380516001836020036101000a031916815260200191505b509250505060405180910390fd5b505050900390565b604080517f19457468657265756d205369676e6564204d6573736167653a0a333200000000602080830191909152603c8083019490945282518083039094018452605c909101909152815191012090565b60008151604114610b77576040805162461bcd60e51b815260206004820152601f60248201527f45434453413a20696e76616c6964207369676e6174757265206c656e67746800604482015290519081900360640190fd5b60208201516040830151606084015160001a610b9586828585610ba4565b9695505050505050565b505050565b60007f7fffffffffffffffffffffffffffffff5d576e7357a4501ddfe92f46681b20a0821115610c055760405162461bcd60e51b8152600401808060200182810382526022815260200180610d8e6022913960400191505060405180910390fd5b8360ff16601b1480610c1a57508360ff16601c145b610c555760405162461bcd60e51b8152600401808060200182810382526022815260200180610db06022913960400191505060405180910390fd5b600060018686868660405160008152602001604052604051808581526020018460ff1681526020018381526020018281526020019450505050506020604051602081039080840390855afa158015610cb1573d6000803e3d6000fd5b5050604051601f1901519150506001600160a01b038116610d19576040805162461bcd60e51b815260206004820152601860248201527f45434453413a20696e76616c6964207369676e61747572650000000000000000604482015290519081900360640190fd5b9594505050505056fe45524332303a207472616e7366657220746f20746865207a65726f206164647265737345524332303a20617070726f766520746f20746865207a65726f206164647265737345524332303a207472616e7366657220616d6f756e7420657863656564732062616c616e636545434453413a20696e76616c6964207369676e6174757265202773272076616c756545434453413a20696e76616c6964207369676e6174757265202776272076616c756545524332303a207472616e7366657220616d6f756e74206578636565647320616c6c6f77616e636545524332303a207472616e736665722066726f6d20746865207a65726f206164647265737345524332303a20617070726f76652066726f6d20746865207a65726f206164647265737345524332303a2064656372656173656420616c6c6f77616e63652062656c6f77207a65726fa264697066735822122054ecbe03b36795d44960de08bb5d7240d6dc78507061e7aacbb1238d57911bcb64736f6c63430007060033",
  "linkReferences": {},
  "deployedLinkReferences": {}
}