{
  "_format": "hh-sol-artifact-1",
  "contractName": "AuraCoin",
  "sourceName": "contracts/ERC20Aura.sol",
  "abi": [
    {
      "inputs": [],
      "stateMutability": "nonpayable",
      "type": "constructor"
    },
    {
      "anonymous": false,
      "inputs": [
        {
          "indexed": true,
          "internalType": "address",
          "name": "owner",
          "type": "address"
        },
        {
          "indexed": true,
          "internalType": "address",
          "name": "spender",
          "type": "address"
        },
        {
          "indexed": false,
          "internalType": "uint256",
          "name": "value",
          "type": "uint256"
        }
      ],
      "name": "Approval",
      "type": "event"
    },
    {
      "anonymous": false,
      "inputs": [
        {
          "indexed": true,
          "internalType": "address",
          "name": "user",
          "type": "address"
        },
        {
          "indexed": false,
          "internalType": "uint256",
          "name": "amount",
          "type": "uint256"
        },
        {
          "indexed": false,
          "internalType": "string",
          "name": "level",
          "type": "string"
        }
      ],
      "name": "BonusDistributed",
      "type": "event"
    },
    {
      "anonymous": false,
      "inputs": [
        {
          "indexed": true,
          "internalType": "address",
          "name": "from",
          "type": "address"
        },
        {
          "indexed": true,
          "internalType": "address",
          "name": "to",
          "type": "address"
        },
        {
          "indexed": false,
          "internalType": "uint256",
          "name": "value",
          "type": "uint256"
        }
      ],
      "name": "Transfer",
      "type": "event"
    },
    {
      "inputs": [
        {
          "internalType": "address",
          "name": "owner",
          "type": "address"
        },
        {
          "internalType": "address",
          "name": "spender",
          "type": "address"
        }
      ],
      "name": "allowance",
      "outputs": [
        {
          "internalType": "uint256",
          "name": "",
          "type": "uint256"
        }
      ],
      "stateMutability": "view",
      "type": "function"
    },
    {
      "inputs": [
        {
          "internalType": "address",
          "name": "spender",
          "type": "address"
        },
        {
          "internalType": "uint256",
          "name": "amount",
          "type": "uint256"
        }
      ],
      "name": "approve",
      "outputs": [
        {
          "internalType": "bool",
          "name": "",
          "type": "bool"
        }
      ],
      "stateMutability": "nonpayable",
      "type": "function"
    },
    {
      "inputs": [
        {
          "internalType": "address",
          "name": "account",
          "type": "address"
        }
      ],
      "name": "balanceOf",
      "outputs": [
        {
          "internalType": "uint256",
          "name": "",
          "type": "uint256"
        }
      ],
      "stateMutability": "view",
      "type": "function"
    },
    {
      "inputs": [
        {
          "internalType": "uint256",
          "name": "amount",
          "type": "uint256"
        },
        {
          "internalType": "string",
          "name": "level",
          "type": "string"
        },
        {
          "internalType": "bytes",
          "name": "signature",
          "type": "bytes"
        }
      ],
      "name": "claimWithSignature",
      "outputs": [],
      "stateMutability": "nonpayable",
      "type": "function"
    },
    {
      "inputs": [],
      "name": "decimals",
      "outputs": [
        {
          "internalType": "uint8",
          "name": "",
          "type": "uint8"
        }
      ],
      "stateMutability": "view",
      "type": "function"
    },
    {
      "inputs": [
        {
          "internalType": "address",
          "name": "spender",
          "type": "address"
        },
        {
          "internalType": "uint256",
          "name": "subtractedValue",
          "type": "uint256"
        }
      ],
      "name": "decreaseAllowance",
      "outputs": [
        {
          "internalType": "bool",
          "name": "",
          "type": "bool"
        }
      ],
      "stateMutability": "nonpayable",
      "type": "function"
    },
    {
      "inputs": [
        {
          "internalType": "address",
          "name": "spender",
          "type": "address"
        },
        {
          "internalType": "uint256",
          "name": "addedValue",
          "type": "uint256"
        }
      ],
      "name": "increaseAllowance",
      "outputs": [
        {
          "internalType": "bool",
          "name": "",
          "type": "bool"
        }
      ],
      "stateMutability": "nonpayable",
      "type": "function"
    },
    {
      "inputs": [],
      "name": "name",
      "outputs": [
        {
          "internalType": "string",
          "name": "",
          "type": "string"
        }
      ],
      "stateMutability": "view",
      "type": "function"
    },
    {
      "inputs": [],
      "name": "signerAddress",
      "outputs": [
        {
          "internalType": "address",
          "name": "",
          "type": "address"
        }
      ],
      "stateMutability": "view",
      "type": "function"
    },
    {
      "inputs": [],
      "name": "symbol",
      "outputs": [
        {
          "internalType": "string",
          "name": "",
          "type": "string"
        }
      ],
      "stateMutability": "view",
      "type": "function"
    },
    {
      "inputs": [],
      "name": "totalSupply",
      "outputs": [
        {
          "internalType": "uint256",
          "name": "",
          "type": "uint256"
        }
      ],
      "stateMutability": "view",
      "type": "function"
    },
    {
      "inputs": [
        {
          "internalType": "address",
          "name": "recipient",
          "type": "address"
        },
        {
          "internalType": "uint256",
          "name": "amount",
          "type": "uint256"
        }
      ],
      "name": "transfer",
      "outputs": [
        {
          "internalType": "bool",
          "name": "",
          "type": "bool"
        }
      ],
      "stateMutability": "nonpayable",
      "type": "function"
    },
    {
      "inputs": [
        {
          "internalType": "address",
          "name": "sender",
          "type": "address"
        },
        {
          "internalType": "address",
          "name": "recipient",
          "type": "address"
        },
        {
          "internalType": "uint256",
          "name": "amount",
          "type": "uint256"
        }
      ],
      "name": "transferFrom",
      "outputs": [
        {
          "internalType": "bool",
          "name": "",
          "type": "bool"
        }
      ],
      "stateMutability": "nonpayable",
      "type": "function"
    }
  ],
  "bytecode": "0x60806040523480156200001157600080fd5b50604080518082018252600881526720bab930a1b7b4b760c11b6020808301918252835180850190945260018452604160f81b9084015281519192916200005b9160039162000244565b5080516200007190600490602084019062000244565b505060058054601260ff1990911617610100600160a81b0319166101003390810291909117909155620000b191506a084595161401484a000000620000ce565b620000c8306a084595161401484a000000620000ce565b620002f0565b6001600160a01b0382166200012a576040805162461bcd60e51b815260206004820152601f60248201527f45524332303a206d696e7420746f20746865207a65726f206164647265737300604482015290519081900360640190fd5b6200013860008383620001dd565b6200015481600254620001e260201b6200083b1790919060201c565b6002556001600160a01b03821660009081526020818152604090912054620001879183906200083b620001e2821b17901c565b6001600160a01b0383166000818152602081815260408083209490945583518581529351929391927fddf252ad1be2c89b69c2b068fc378daa952ba7f163c4a11628f55a4df523b3ef9281900390910190a35050565b505050565b6000828201838110156200023d576040805162461bcd60e51b815260206004820152601b60248201527f536166654d6174683a206164646974696f6e206f766572666c6f770000000000604482015290519081900360640190fd5b9392505050565b828054600181600116156101000203166002900490600052602060002090601f0160209004810192826200027c5760008555620002c7565b82601f106200029757805160ff1916838001178555620002c7565b82800160010185558215620002c7579182015b82811115620002c7578251825591602001919060010190620002aa565b50620002d5929150620002d9565b5090565b5b80821115620002d55760008155600101620002da565b610f4d80620003006000396000f3fe608060405234801561001057600080fd5b50600436106100df5760003560e01c80635b7633d01161008c578063a457c2d711610066578063a457c2d71461028d578063a9059cbb146102b9578063dd62ed3e146102e5578063faba54b514610313576100df565b80635b7633d01461023b57806370a082311461025f57806395d89b4114610285576100df565b806323b872dd116100bd57806323b872dd146101bb578063313ce567146101f1578063395093511461020f576100df565b806306fdde03146100e4578063095ea7b31461016157806318160ddd146101a1575b600080fd5b6100ec610414565b6040805160208082528351818301528351919283929083019185019080838360005b8381101561012657818101518382015260200161010e565b50505050905090810190601f1680156101535780820380516001836020036101000a031916815260200191505b509250505060405180910390f35b61018d6004803603604081101561017757600080fd5b506001600160a01b0381351690602001356104aa565b604080519115158252519081900360200190f35b6101a96104c7565b60408051918252519081900360200190f35b61018d600480360360608110156101d157600080fd5b506001600160a01b038135811691602081013590911690604001356104cd565b6101f9610554565b6040805160ff9092168252519081900360200190f35b61018d6004803603604081101561022557600080fd5b506001600160a01b03813516906020013561055d565b6102436105ab565b604080516001600160a01b039092168252519081900360200190f35b6101a96004803603602081101561027557600080fd5b50356001600160a01b03166105bf565b6100ec6105da565b61018d600480360360408110156102a357600080fd5b506001600160a01b03813516906020013561063b565b61018d600480360360408110156102cf57600080fd5b506001600160a01b0381351690602001356106a3565b6101a9600480360360408110156102fb57600080fd5b506001600160a01b03813581169160200135166106b7565b6104126004803603606081101561032957600080fd5b8135919081019060408101602082013564010000000081111561034b57600080fd5b82018360208201111561035d57600080fd5b8035906020019184600183028401116401000000008311171561037f57600080fd5b91939092909160208101903564010000000081111561039d57600080fd5b8201836020820111156103af57600080fd5b803590602001918460018302840111640100000000831117156103d157600080fd5b91908080601f0160208091040260200160405190810160405280939291908181526020018383808284376000920191909152509295506106e2945050505050565b005b60038054604080516020601f60026000196101006001881615020190951694909404938401819004810282018101909252828152606093909290918301828280156104a05780601f10610475576101008083540402835291602001916104a0565b820191906000526020600020905b81548152906001019060200180831161048357829003601f168201915b5050505050905090565b60006104be6104b761089c565b84846108a0565b50600192915050565b60025490565b60006104da84848461098c565b61054a846104e661089c565b61054585604051806060016040528060288152602001610e82602891396001600160a01b038a1660009081526001602052604081209061052461089c565b6001600160a01b031681526020810191909152604001600020549190610ae7565b6108a0565b5060019392505050565b60055460ff1690565b60006104be61056a61089c565b84610545856001600061057b61089c565b6001600160a01b03908116825260208083019390935260409182016000908120918c16815292529020549061083b565b60055461010090046001600160a01b031681565b6001600160a01b031660009081526020819052604090205490565b60048054604080516020601f60026000196101006001881615020190951694909404938401819004810282018101909252828152606093909290918301828280156104a05780601f10610475576101008083540402835291602001916104a0565b60006104be61064861089c565b8461054585604051806060016040528060258152602001610ef3602591396001600061067261089c565b6001600160a01b03908116825260208083019390935260409182016000908120918d16815292529020549190610ae7565b60006104be6106b061089c565b848461098c565b6001600160a01b03918216600090815260016020908152604080832093909416825291909152205490565b60003385858560405160200180856001600160a01b031660601b815260140184815260200183838082843780830192505050945050505050604051602081830303815290604052805190602001209050600061073d82610b7e565b9050600061074b8285610bcf565b6005549091506001600160a01b0380831661010090920416146107b5576040805162461bcd60e51b815260206004820152601160248201527f496e76616c6964205369676e6174757265000000000000000000000000000000604482015290519081900360640190fd5b6107c030338961098c565b336001600160a01b03167f5b2fed674aba578382bffe63e5bc6ebeddce58a2883d05fb95d7bb8a5205e0ce88888860405180848152602001806020018281038252848482818152602001925080828437600083820152604051601f909101601f1916909201829003965090945050505050a250505050505050565b600082820183811015610895576040805162461bcd60e51b815260206004820152601b60248201527f536166654d6174683a206164646974696f6e206f766572666c6f770000000000604482015290519081900360640190fd5b9392505050565b3390565b6001600160a01b0383166108e55760405162461bcd60e51b8152600401808060200182810382526024815260200180610ecf6024913960400191505060405180910390fd5b6001600160a01b03821661092a5760405162461bcd60e51b8152600401808060200182810382526022815260200180610df66022913960400191505060405180910390fd5b6001600160a01b03808416600081815260016020908152604080832094871680845294825291829020859055815185815291517f8c5be1e5ebec7d5bd14f71427d1e84f3dd0314c0f7b2291e5b200ac8c7c3b9259281900390910190a3505050565b6001600160a01b0383166109d15760405162461bcd60e51b8152600401808060200182810382526025815260200180610eaa6025913960400191505060405180910390fd5b6001600160a01b038216610a165760405162461bcd60e51b8152600401808060200182810382526023815260200180610dd36023913960400191505060405180910390fd5b610a21838383610c4f565b610a5e81604051806060016040528060268152602001610e18602691396001600160a01b0386166000908152602081905260409020549190610ae7565b6001600160a01b038085166000908152602081905260408082209390935590841681522054610a8d908261083b565b6001600160a01b038084166000818152602081815260409182902094909455805185815290519193928716927fddf252ad1be2c89b69c2b068fc378daa952ba7f163c4a11628f55a4df523b3ef92918290030190a3505050565b60008184841115610b765760405162461bcd60e51b81526004018080602001828103825283818151815260200191508051906020019080838360005b83811015610b3b578181015183820152602001610b23565b50505050905090810190601f168015610b685780820380516001836020036101000a031916815260200191505b509250505060405180910390fd5b505050900390565b604080517f19457468657265756d205369676e6564204d6573736167653a0a333200000000602080830191909152603c8083019490945282518083039094018452605c909101909152815191012090565b60008151604114610c27576040805162461bcd60e51b815260206004820152601f60248201527f45434453413a20696e76616c6964207369676e6174757265206c656e67746800604482015290519081900360640190fd5b60208201516040830151606084015160001a610c4586828585610c54565b9695505050505050565b505050565b60007f7fffffffffffffffffffffffffffffff5d576e7357a4501ddfe92f46681b20a0821115610cb55760405162461bcd60e51b8152600401808060200182810382526022815260200180610e3e6022913960400191505060405180910390fd5b8360ff16601b1480610cca57508360ff16601c145b610d055760405162461bcd60e51b8152600401808060200182810382526022815260200180610e606022913960400191505060405180910390fd5b600060018686868660405160008152602001604052604051808581526020018460ff1681526020018381526020018281526020019450505050506020604051602081039080840390855afa158015610d61573d6000803e3d6000fd5b5050604051601f1901519150506001600160a01b038116610dc9576040805162461bcd60e51b815260206004820152601860248201527f45434453413a20696e76616c6964207369676e61747572650000000000000000604482015290519081900360640190fd5b9594505050505056fe45524332303a207472616e7366657220746f20746865207a65726f206164647265737345524332303a20617070726f766520746f20746865207a65726f206164647265737345524332303a207472616e7366657220616d6f756e7420657863656564732062616c616e636545434453413a20696e76616c6964207369676e6174757265202773272076616c756545434453413a20696e76616c6964207369676e6174757265202776272076616c756545524332303a207472616e7366657220616d6f756e74206578636565647320616c6c6f77616e636545524332303a207472616e736665722066726f6d20746865207a65726f206164647265737345524332303a20617070726f76652066726f6d20746865207a65726f206164647265737345524332303a2064656372656173656420616c6c6f77616e63652062656c6f77207a65726fa26469706673582212202c6e8ec9fe2218bf8cef7561ebb836d252c89a7111ef35e2479c4c370c07064264736f6c63430007060033",
  "linkReferences": {},
  "deployedLinkReferences": {}
}