{
  "_format": "hh-sol-artifact-1",
  "contractName": "SingleSwapToken",
  "sourceName": "contracts/SwapToken.sol",
  "abi": [
    {
      "inputs": [
        {
          "internalType": "address",
          "name": "_customToken",
          "type": "address"
        },
        {
          "internalType": "address",
          "name": "_factory",
          "type": "address"
        },
        {
          "internalType": "address",
          "name": "_router",
          "type": "address"
        }
      ],
      "stateMutability": "nonpayable",
      "type": "constructor"
    },
    {
      "inputs": [],
      "name": "FIXED_FEE_BPS",
      "outputs": [
        {
          "internalType": "uint256",
          "name": "",
          "type": "uint256"
        }
      ],
      "stateMutability": "view",
      "type": "function"
    },
    {
      "inputs": [],
      "name": "customToken",
      "outputs": [
        {
          "internalType": "address",
          "name": "",
          "type": "address"
        }
      ],
      "stateMutability": "view",
      "type": "function"
    },
    {
      "inputs": [
        {
          "internalType": "address",
          "name": "tokenIn",
          "type": "address"
        },
        {
          "internalType": "address",
          "name": "tokenOut",
          "type": "address"
        },
        {
          "internalType": "uint24",
          "name": "poolFee",
          "type": "uint24"
        }
      ],
      "name": "estimateScarcityFee",
      "outputs": [
        {
          "internalType": "uint256",
          "name": "",
          "type": "uint256"
        }
      ],
      "stateMutability": "view",
      "type": "function"
    },
    {
      "inputs": [
        {
          "internalType": "address",
          "name": "tokenIn",
          "type": "address"
        },
        {
          "internalType": "address",
          "name": "tokenOut",
          "type": "address"
        },
        {
          "internalType": "uint256",
          "name": "amountIn",
          "type": "uint256"
        },
        {
          "internalType": "uint24",
          "name": "poolFee",
          "type": "uint24"
        }
      ],
      "name": "executeSwap",
      "outputs": [
        {
          "internalType": "uint256",
          "name": "amountOut",
          "type": "uint256"
        }
      ],
      "stateMutability": "nonpayable",
      "type": "function"
    },
    {
      "inputs": [],
      "name": "factory",
      "outputs": [
        {
          "internalType": "address",
          "name": "",
          "type": "address"
        }
      ],
      "stateMutability": "view",
      "type": "function"
    },
    {
      "inputs": [
        {
          "internalType": "address",
          "name": "",
          "type": "address"
        }
      ],
      "name": "isInitialized",
      "outputs": [
        {
          "internalType": "bool",
          "name": "",
          "type": "bool"
        }
      ],
      "stateMutability": "view",
      "type": "function"
    },
    {
      "inputs": [],
      "name": "maxFee",
      "outputs": [
        {
          "internalType": "uint256",
          "name": "",
          "type": "uint256"
        }
      ],
      "stateMutability": "view",
      "type": "function"
    },
    {
      "inputs": [],
      "name": "minFee",
      "outputs": [
        {
          "internalType": "uint256",
          "name": "",
          "type": "uint256"
        }
      ],
      "stateMutability": "view",
      "type": "function"
    },
    {
      "inputs": [],
      "name": "owner",
      "outputs": [
        {
          "internalType": "address",
          "name": "",
          "type": "address"
        }
      ],
      "stateMutability": "view",
      "type": "function"
    },
    {
      "inputs": [
        {
          "internalType": "address",
          "name": "",
          "type": "address"
        }
      ],
      "name": "poolReferences",
      "outputs": [
        {
          "internalType": "int24",
          "name": "",
          "type": "int24"
        }
      ],
      "stateMutability": "view",
      "type": "function"
    },
    {
      "inputs": [],
      "name": "router",
      "outputs": [
        {
          "internalType": "address",
          "name": "",
          "type": "address"
        }
      ],
      "stateMutability": "view",
      "type": "function"
    }
  ],
  "bytecode": "0x60e060405234801561001057600080fd5b5060405161119938038061119983398101604081905261002f9161009b565b678ac7230489e800006001556803782dace9d90000006002556001600160601b0319606091821b811660c05292811b83166080521b1660a052600080546001600160a01b031916331790556100dd565b80516001600160a01b038116811461009657600080fd5b919050565b6000806000606084860312156100af578283fd5b6100b88461007f565b92506100c66020850161007f565b91506100d46040850161007f565b90509250925092565b60805160601c60a05160601c60c05160601c6110556101446000398061071f52806107b8528061084e52508061029b528061047e52806104ba5250806101b752806101ec528061022752806105b552806105f252806106ba52806106dc52506110556000f3fe608060405234801561001057600080fd5b50600436106100c95760003560e01c80638da5cb5b11610081578063d60b347f1161005b578063d60b347f14610154578063e3ebaa4314610174578063f887ea4014610187576100c9565b80638da5cb5b14610131578063b9b345fe14610139578063c45a01551461014c576100c9565b806369344260116100b257806369344260146100f45780636983807414610114578063899e31061461011c576100c9565b806301f59d16146100ce57806324ec7590146100ec575b600080fd5b6100d661018f565b6040516100e39190611001565b60405180910390f35b6100d6610195565b610107610102366004610d80565b61019b565b6040516100e39190610f4d565b6100d66101b0565b6101246101b5565b6040516100e39190610f06565b6101246101d9565b6100d6610147366004610db8565b6101e8565b61012461047c565b610167610162366004610d80565b6104a0565b6040516100e39190610f42565b6100d6610182366004610dfe565b6104b5565b61012461084c565b60025481565b60015481565b60036020526000908152604090205460020b81565b600a81565b7f000000000000000000000000000000000000000000000000000000000000000081565b6000546001600160a01b031681565b60007f00000000000000000000000000000000000000000000000000000000000000006001600160a01b0316846001600160a01b0316148061025b57507f00000000000000000000000000000000000000000000000000000000000000006001600160a01b0316836001600160a01b0316145b1561026857506000610475565b6040517f1698ee820000000000000000000000000000000000000000000000000000000081526000906001600160a01b037f00000000000000000000000000000000000000000000000000000000000000001690631698ee82906102d490889088908890600401610f1a565b60206040518083038186803b1580156102ec57600080fd5b505afa158015610300573d6000803e3d6000fd5b505050506040513d601f19601f820116820180604052508101906103249190610d9c565b90506001600160a01b03811661033e576000915050610475565b6000816001600160a01b0316633850c7bd6040518163ffffffff1660e01b815260040160e06040518083038186803b15801561037957600080fd5b505afa15801561038d573d6000803e3d6000fd5b505050506040513d601f19601f820116820180604052508101906103b19190610e4e565b505050506001600160a01b0385166000908152600460205260409020549193505060ff1690506103e75760015492505050610475565b6001600160a01b038216600090815260036020526040812054600290810b919082810b9084900b1361041b5782820361041f565b8183035b60020b90506101f4811161043b57600154945050505050610475565b6105dc811061045257600254945050505050610475565b6103e8600154600254036101f48303028161046957fe5b04600154019450505050505b9392505050565b7f000000000000000000000000000000000000000000000000000000000000000081565b60046020526000908152604090205460ff1681565b6000807f00000000000000000000000000000000000000000000000000000000000000006001600160a01b0316631698ee828787866040518463ffffffff1660e01b815260040161050893929190610f1a565b60206040518083038186803b15801561052057600080fd5b505afa158015610534573d6000803e3d6000fd5b505050506040513d601f19601f820116820180604052508101906105589190610d9c565b90506001600160a01b0381166105895760405162461bcd60e51b815260040161058090610f5b565b60405180910390fd5b600054612710600a860204906105ac90889033906001600160a01b031684610870565b600081860390507f00000000000000000000000000000000000000000000000000000000000000006001600160a01b0316886001600160a01b03161415801561062757507f00000000000000000000000000000000000000000000000000000000000000006001600160a01b0316876001600160a01b031614155b1561070d576000836001600160a01b0316633850c7bd6040518163ffffffff1660e01b815260040160e06040518083038186803b15801561066757600080fd5b505afa15801561067b573d6000803e3d6000fd5b505050506040513d601f19601f8201168201806040525081019061069f9190610e4e565b505050505091505060006106b385836109fb565b90506107017f0000000000000000000000000000000000000000000000000000000000000000337f000000000000000000000000000000000000000000000000000000000000000084610870565b61070a81610b3c565b50505b61071988333084610870565b610744887f000000000000000000000000000000000000000000000000000000000000000083610b99565b60408051610100810182526001600160a01b03808b168252898116602083015262ffffff88168284015233606083015242608083015260a08201849052600060c0830181905260e083015291517f414bf38900000000000000000000000000000000000000000000000000000000815290917f0000000000000000000000000000000000000000000000000000000000000000169063414bf389906107ed908490600401610f92565b602060405180830381600087803b15801561080757600080fd5b505af115801561081b573d6000803e3d6000fd5b505050506040513d601f19601f8201168201806040525081019061083f9190610eee565b9998505050505050505050565b7f000000000000000000000000000000000000000000000000000000000000000081565b604080516001600160a01b0385811660248301528481166044830152606480830185905283518084039091018152608490920183526020820180516001600160e01b03167f23b872dd00000000000000000000000000000000000000000000000000000000178152925182516000948594938a169392918291908083835b6020831061090d5780518252601f1990920191602091820191016108ee565b6001836020036101000a0380198251168184511680821785525050505050509050019150506000604051808303816000865af19150503d806000811461096f576040519150601f19603f3d011682016040523d82523d6000602084013e610974565b606091505b50915091508180156109a25750805115806109a2575080806020019051602081101561099f57600080fd5b50515b6109f3576040805162461bcd60e51b815260206004820152600360248201527f5354460000000000000000000000000000000000000000000000000000000000604482015290519081900360640190fd5b505050505050565b6001600160a01b03821660009081526004602052604081205460ff16610a6757506001600160a01b0382166000908152600360209081526040808320805462ffffff191662ffffff600287900b1617905560049091529020805460ff1916600190811790915554610b36565b6001600160a01b038316600090815260036020526040812054600290810b919082810b9085900b13610a9b57838203610a9f565b8184035b60020b905060648460020b8360020b6063020181610ab957fe5b6001600160a01b0387166000908152600360205260409020805462ffffff191662ffffff9390920560020b929092161790556101f48111610b005760015492505050610b36565b6105dc8110610b155760025492505050610b36565b6103e8600154600254036101f483030281610b2c57fe5b0460015401925050505b92915050565b6040805160248082018490528251808303909101815260449091019091526020810180516001600160e01b03167ff82c50f100000000000000000000000000000000000000000000000000000000179052610b9690610d1b565b50565b604080516001600160a01b038481166024830152604480830185905283518084039091018152606490920183526020820180516001600160e01b03167f095ea7b3000000000000000000000000000000000000000000000000000000001781529251825160009485949389169392918291908083835b60208310610c2e5780518252601f199092019160209182019101610c0f565b6001836020036101000a0380198251168184511680821785525050505050509050019150506000604051808303816000865af19150503d8060008114610c90576040519150601f19603f3d011682016040523d82523d6000602084013e610c95565b606091505b5091509150818015610cc3575080511580610cc35750808060200190516020811015610cc057600080fd5b50515b610d14576040805162461bcd60e51b815260206004820152600260248201527f5341000000000000000000000000000000000000000000000000000000000000604482015290519081900360640190fd5b5050505050565b610b9681610d2a610d32610d53565b63ffffffff16565b60006a636f6e736f6c652e6c6f679050600080835160208501845afa505050565b90565b805161ffff81168114610d6857600080fd5b919050565b803562ffffff81168114610d6857600080fd5b600060208284031215610d91578081fd5b81356104758161100a565b600060208284031215610dad578081fd5b81516104758161100a565b600080600060608486031215610dcc578182fd5b8335610dd78161100a565b92506020840135610de78161100a565b9150610df560408501610d6d565b90509250925092565b60008060008060808587031215610e13578081fd5b8435610e1e8161100a565b93506020850135610e2e8161100a565b925060408501359150610e4360608601610d6d565b905092959194509250565b600080600080600080600060e0888a031215610e68578283fd5b8751610e738161100a565b8097505060208801518060020b8114610e8a578384fd5b9550610e9860408901610d56565b9450610ea660608901610d56565b9350610eb460808901610d56565b925060a088015160ff81168114610ec9578283fd5b60c08901519092508015158114610ede578182fd5b8091505092959891949750929550565b600060208284031215610eff578081fd5b5051919050565b6001600160a01b0391909116815260200190565b6001600160a01b03938416815291909216602082015262ffffff909116604082015260600190565b901515815260200190565b60029190910b815260200190565b6020808252600e908201527f506f6f6c206e6f7420666f756e64000000000000000000000000000000000000604082015260600190565b6000610100820190506001600160a01b0380845116835280602085015116602084015262ffffff60408501511660408401528060608501511660608401526080840151608084015260a084015160a084015260c084015160c08401528060e08501511660e08401525092915050565b90815260200190565b6001600160a01b0381168114610b9657600080fdfea2646970667358221220afe7c13b43ed30d3dd850af1f1a409a3e96ed6ea3766bde941fb9bad20559a9464736f6c63430007060033",
  "linkReferences": {},
  "deployedLinkReferences": {}
}