{
  "_format": "hh-sol-artifact-1",
  "contractName": "SingleSwapToken",
  "sourceName": "contracts/SwapToken.sol",
  "abi": [
    {
      "inputs": [
        {
          "internalType": "address",
          "name": "_customToken",
          "type": "address"
        },
        {
          "internalType": "address",
          "name": "_factory",
          "type": "address"
        },
        {
          "internalType": "address",
          "name": "_router",
          "type": "address"
        }
      ],
      "stateMutability": "nonpayable",
      "type": "constructor"
    },
    {
      "inputs": [],
      "name": "FIXED_FEE_BPS",
      "outputs": [
        {
          "internalType": "uint256",
          "name": "",
          "type": "uint256"
        }
      ],
      "stateMutability": "view",
      "type": "function"
    },
    {
      "inputs": [],
      "name": "customToken",
      "outputs": [
        {
          "internalType": "address",
          "name": "",
          "type": "address"
        }
      ],
      "stateMutability": "view",
      "type": "function"
    },
    {
      "inputs": [
        {
          "internalType": "address",
          "name": "tokenIn",
          "type": "address"
        },
        {
          "internalType": "address",
          "name": "tokenOut",
          "type": "address"
        },
        {
          "internalType": "uint24",
          "name": "poolFee",
          "type": "uint24"
        }
      ],
      "name": "estimateScarcityFee",
      "outputs": [
        {
          "internalType": "uint256",
          "name": "",
          "type": "uint256"
        }
      ],
      "stateMutability": "view",
      "type": "function"
    },
    {
      "inputs": [],
      "name": "factory",
      "outputs": [
        {
          "internalType": "address",
          "name": "",
          "type": "address"
        }
      ],
      "stateMutability": "view",
      "type": "function"
    },
    {
      "inputs": [
        {
          "internalType": "address",
          "name": "",
          "type": "address"
        }
      ],
      "name": "isInitialized",
      "outputs": [
        {
          "internalType": "bool",
          "name": "",
          "type": "bool"
        }
      ],
      "stateMutability": "view",
      "type": "function"
    },
    {
      "inputs": [],
      "name": "maxFee",
      "outputs": [
        {
          "internalType": "uint256",
          "name": "",
          "type": "uint256"
        }
      ],
      "stateMutability": "view",
      "type": "function"
    },
    {
      "inputs": [],
      "name": "minFee",
      "outputs": [
        {
          "internalType": "uint256",
          "name": "",
          "type": "uint256"
        }
      ],
      "stateMutability": "view",
      "type": "function"
    },
    {
      "inputs": [],
      "name": "owner",
      "outputs": [
        {
          "internalType": "address",
          "name": "",
          "type": "address"
        }
      ],
      "stateMutability": "view",
      "type": "function"
    },
    {
      "inputs": [
        {
          "internalType": "address",
          "name": "",
          "type": "address"
        }
      ],
      "name": "poolReferences",
      "outputs": [
        {
          "internalType": "int24",
          "name": "",
          "type": "int24"
        }
      ],
      "stateMutability": "view",
      "type": "function"
    },
    {
      "inputs": [],
      "name": "router",
      "outputs": [
        {
          "internalType": "address",
          "name": "",
          "type": "address"
        }
      ],
      "stateMutability": "view",
      "type": "function"
    },
    {
      "inputs": [
        {
          "internalType": "address",
          "name": "tokenIn",
          "type": "address"
        },
        {
          "internalType": "address",
          "name": "tokenOut",
          "type": "address"
        },
        {
          "internalType": "uint256",
          "name": "amountIn",
          "type": "uint256"
        },
        {
          "internalType": "uint24",
          "name": "poolFee",
          "type": "uint24"
        }
      ],
      "name": "swapExactInputSingle",
      "outputs": [
        {
          "internalType": "uint256",
          "name": "amountOut",
          "type": "uint256"
        }
      ],
      "stateMutability": "nonpayable",
      "type": "function"
    },
    {
      "inputs": [
        {
          "internalType": "address",
          "name": "token1",
          "type": "address"
        },
        {
          "internalType": "address",
          "name": "token2",
          "type": "address"
        },
        {
          "internalType": "uint256",
          "name": "amountOut",
          "type": "uint256"
        },
        {
          "internalType": "uint256",
          "name": "amountInMaximum",
          "type": "uint256"
        },
        {
          "internalType": "uint24",
          "name": "poolFee",
          "type": "uint24"
        }
      ],
      "name": "swapExactOutputSingle",
      "outputs": [
        {
          "internalType": "uint256",
          "name": "amountIn",
          "type": "uint256"
        }
      ],
      "stateMutability": "nonpayable",
      "type": "function"
    }
  ],
  "bytecode": "0x60e06040523480156200001157600080fd5b5060405162001791380380620017918339810160408190526200003491620000a2565b678ac7230489e800006001556803782dace9d90000006002556001600160601b0319606091821b811660c05292811b83166080521b1660a052600080546001600160a01b03191633179055620000eb565b80516001600160a01b03811681146200009d57600080fd5b919050565b600080600060608486031215620000b7578283fd5b620000c28462000085565b9250620000d26020850162000085565b9150620000e26040850162000085565b90509250925092565b60805160601c60a05160601c60c05160601c6116166200017b6000398061041d52806104b6528061094752806109e05280610bf35280610c365250806101b852806106505280610833528061086f5250806102b352806102f052806103b852806103da528061056c52806105a152806105dc5280610a8d5280610aca5280610b925280610bb452506116166000f3fe608060405234801561001057600080fd5b50600436106100d45760003560e01c80638da5cb5b11610081578063d60b347f1161005b578063d60b347f14610172578063eb70624b14610192578063f887ea40146101a5576100d4565b80638da5cb5b1461014f578063b9b345fe14610157578063c45a01551461016a576100d4565b806369344260116100b257806369344260146101125780636983807414610132578063899e31061461013a576100d4565b806301f59d16146100d95780631a321669146100f757806324ec75901461010a575b600080fd5b6100e16101ad565b6040516100ee91906115c2565b60405180910390f35b6100e1610105366004611361565b6101b3565b6100e161054a565b6101256101203660046112e3565b610550565b6040516100ee919061156e565b6100e1610565565b61014261056a565b6040516100ee9190611527565b61014261058e565b6100e161016536600461131b565b61059d565b610142610831565b6101856101803660046112e3565b610855565b6040516100ee9190611563565b6100e16101a03660046113b1565b61086a565b610142610c34565b60025481565b6000807f00000000000000000000000000000000000000000000000000000000000000006001600160a01b0316631698ee828787866040518463ffffffff1660e01b81526004016102069392919061153b565b60206040518083038186803b15801561021e57600080fd5b505afa158015610232573d6000803e3d6000fd5b505050506040513d601f19601f8201168201806040525081019061025691906112ff565b90506001600160a01b0381166102875760405162461bcd60e51b815260040161027e9061157c565b60405180910390fd5b600054612710600a860204906102aa90889033906001600160a01b031684610c58565b600081860390507f00000000000000000000000000000000000000000000000000000000000000006001600160a01b0316886001600160a01b03161415801561032557507f00000000000000000000000000000000000000000000000000000000000000006001600160a01b0316876001600160a01b031614155b1561040b576000836001600160a01b0316633850c7bd6040518163ffffffff1660e01b815260040160e06040518083038186803b15801561036557600080fd5b505afa158015610379573d6000803e3d6000fd5b505050506040513d601f19601f8201168201806040525081019061039d919061140b565b505050505091505060006103b18583610de3565b90506103ff7f0000000000000000000000000000000000000000000000000000000000000000337f000000000000000000000000000000000000000000000000000000000000000084610c58565b61040881610f24565b50505b61041788333084610c58565b610442887f000000000000000000000000000000000000000000000000000000000000000083610f81565b60408051610100810182526001600160a01b03808b168252898116602083015262ffffff88168284015233606083015242608083015260a08201849052600060c0830181905260e083015291517f414bf38900000000000000000000000000000000000000000000000000000000815290917f0000000000000000000000000000000000000000000000000000000000000000169063414bf389906104eb9084906004016115b3565b602060405180830381600087803b15801561050557600080fd5b505af1158015610519573d6000803e3d6000fd5b505050506040513d601f19601f8201168201806040525081019061053d91906114ab565b9998505050505050505050565b60015481565b60036020526000908152604090205460020b81565b600a81565b7f000000000000000000000000000000000000000000000000000000000000000081565b6000546001600160a01b031681565b60007f00000000000000000000000000000000000000000000000000000000000000006001600160a01b0316846001600160a01b0316148061061057507f00000000000000000000000000000000000000000000000000000000000000006001600160a01b0316836001600160a01b0316145b1561061d5750600061082a565b6040517f1698ee820000000000000000000000000000000000000000000000000000000081526000906001600160a01b037f00000000000000000000000000000000000000000000000000000000000000001690631698ee82906106899088908890889060040161153b565b60206040518083038186803b1580156106a157600080fd5b505afa1580156106b5573d6000803e3d6000fd5b505050506040513d601f19601f820116820180604052508101906106d991906112ff565b90506001600160a01b0381166106f357600091505061082a565b6000816001600160a01b0316633850c7bd6040518163ffffffff1660e01b815260040160e06040518083038186803b15801561072e57600080fd5b505afa158015610742573d6000803e3d6000fd5b505050506040513d601f19601f82011682018060405250810190610766919061140b565b505050506001600160a01b0385166000908152600460205260409020549193505060ff16905061079c576001549250505061082a565b6001600160a01b038216600090815260036020526040812054600290810b919082810b9084900b136107d0578282036107d4565b8183035b60020b90506101f481116107f05760015494505050505061082a565b6105dc81106108075760025494505050505061082a565b6103e8600154600254036101f48303028161081e57fe5b04600154019450505050505b9392505050565b7f000000000000000000000000000000000000000000000000000000000000000081565b60046020526000908152604090205460ff1681565b6000807f00000000000000000000000000000000000000000000000000000000000000006001600160a01b0316631698ee828888866040518463ffffffff1660e01b81526004016108bd9392919061153b565b60206040518083038186803b1580156108d557600080fd5b505afa1580156108e9573d6000803e3d6000fd5b505050506040513d601f19601f8201168201806040525081019061090d91906112ff565b90506001600160a01b0381166109355760405162461bcd60e51b815260040161027e9061157c565b61094187333087610c58565b61096c877f000000000000000000000000000000000000000000000000000000000000000086610f81565b60408051610100810182526001600160a01b03808a168252888116602083015262ffffff86168284015233606083015242608083015260a0820188905260c08201879052600060e083015291517fdb3e219800000000000000000000000000000000000000000000000000000000815290917f0000000000000000000000000000000000000000000000000000000000000000169063db3e219890610a159084906004016115b3565b602060405180830381600087803b158015610a2f57600080fd5b505af1158015610a43573d6000803e3d6000fd5b505050506040513d601f19601f82011682018060405250810190610a6791906114ab565b600054909350612710600a85020490610a8b908a906001600160a01b031683611103565b7f00000000000000000000000000000000000000000000000000000000000000006001600160a01b0316896001600160a01b031614158015610aff57507f00000000000000000000000000000000000000000000000000000000000000006001600160a01b0316886001600160a01b031614155b15610be5576000836001600160a01b0316633850c7bd6040518163ffffffff1660e01b815260040160e06040518083038186803b158015610b3f57600080fd5b505afa158015610b53573d6000803e3d6000fd5b505050506040513d601f19601f82011682018060405250810190610b77919061140b565b50505050509150506000610b8b8583610de3565b9050610bd97f0000000000000000000000000000000000000000000000000000000000000000337f000000000000000000000000000000000000000000000000000000000000000084610c58565b610be281610f24565b50505b85841015610c2857610c19897f00000000000000000000000000000000000000000000000000000000000000006000610f81565b610c28893383878a0303611103565b50505095945050505050565b7f000000000000000000000000000000000000000000000000000000000000000081565b604080516001600160a01b0385811660248301528481166044830152606480830185905283518084039091018152608490920183526020820180516001600160e01b03167f23b872dd00000000000000000000000000000000000000000000000000000000178152925182516000948594938a169392918291908083835b60208310610cf55780518252601f199092019160209182019101610cd6565b6001836020036101000a0380198251168184511680821785525050505050509050019150506000604051808303816000865af19150503d8060008114610d57576040519150601f19603f3d011682016040523d82523d6000602084013e610d5c565b606091505b5091509150818015610d8a575080511580610d8a5750808060200190516020811015610d8757600080fd5b50515b610ddb576040805162461bcd60e51b815260206004820152600360248201527f5354460000000000000000000000000000000000000000000000000000000000604482015290519081900360640190fd5b505050505050565b6001600160a01b03821660009081526004602052604081205460ff16610e4f57506001600160a01b0382166000908152600360209081526040808320805462ffffff191662ffffff600287900b1617905560049091529020805460ff1916600190811790915554610f1e565b6001600160a01b038316600090815260036020526040812054600290810b919082810b9085900b13610e8357838203610e87565b8184035b60020b905060648460020b8360020b6063020181610ea157fe5b6001600160a01b0387166000908152600360205260409020805462ffffff191662ffffff9390920560020b929092161790556101f48111610ee85760015492505050610f1e565b6105dc8110610efd5760025492505050610f1e565b6103e8600154600254036101f483030281610f1457fe5b0460015401925050505b92915050565b6040805160248082018490528251808303909101815260449091019091526020810180516001600160e01b03167ff82c50f100000000000000000000000000000000000000000000000000000000179052610f7e9061127e565b50565b604080516001600160a01b038481166024830152604480830185905283518084039091018152606490920183526020820180516001600160e01b03167f095ea7b3000000000000000000000000000000000000000000000000000000001781529251825160009485949389169392918291908083835b602083106110165780518252601f199092019160209182019101610ff7565b6001836020036101000a0380198251168184511680821785525050505050509050019150506000604051808303816000865af19150503d8060008114611078576040519150601f19603f3d011682016040523d82523d6000602084013e61107d565b606091505b50915091508180156110ab5750805115806110ab57508080602001905160208110156110a857600080fd5b50515b6110fc576040805162461bcd60e51b815260206004820152600260248201527f5341000000000000000000000000000000000000000000000000000000000000604482015290519081900360640190fd5b5050505050565b604080516001600160a01b038481166024830152604480830185905283518084039091018152606490920183526020820180516001600160e01b03167fa9059cbb000000000000000000000000000000000000000000000000000000001781529251825160009485949389169392918291908083835b602083106111985780518252601f199092019160209182019101611179565b6001836020036101000a0380198251168184511680821785525050505050509050019150506000604051808303816000865af19150503d80600081146111fa576040519150601f19603f3d011682016040523d82523d6000602084013e6111ff565b606091505b509150915081801561122d57508051158061122d575080806020019051602081101561122a57600080fd5b50515b6110fc576040805162461bcd60e51b815260206004820152600260248201527f5354000000000000000000000000000000000000000000000000000000000000604482015290519081900360640190fd5b610f7e8161128d6112956112b6565b63ffffffff16565b60006a636f6e736f6c652e6c6f679050600080835160208501845afa505050565b90565b805161ffff811681146112cb57600080fd5b919050565b803562ffffff811681146112cb57600080fd5b6000602082840312156112f4578081fd5b813561082a816115cb565b600060208284031215611310578081fd5b815161082a816115cb565b60008060006060848603121561132f578182fd5b833561133a816115cb565b9250602084013561134a816115cb565b9150611358604085016112d0565b90509250925092565b60008060008060808587031215611376578081fd5b8435611381816115cb565b93506020850135611391816115cb565b9250604085013591506113a6606086016112d0565b905092959194509250565b600080600080600060a086880312156113c8578081fd5b85356113d3816115cb565b945060208601356113e3816115cb565b935060408601359250606086013591506113ff608087016112d0565b90509295509295909350565b600080600080600080600060e0888a031215611425578182fd5b8751611430816115cb565b8097505060208801518060020b8114611447578283fd5b9550611455604089016112b9565b9450611463606089016112b9565b9350611471608089016112b9565b925060a088015160ff81168114611486578283fd5b60c0890151909250801515811461149b578182fd5b8091505092959891949750929550565b6000602082840312156114bc578081fd5b5051919050565b6001600160a01b0380825116835280602083015116602084015262ffffff60408301511660408401528060608301511660608401526080820151608084015260a082015160a084015260c082015160c08401528060e08301511660e0840152505050565b6001600160a01b0391909116815260200190565b6001600160a01b03938416815291909216602082015262ffffff909116604082015260600190565b901515815260200190565b60029190910b815260200190565b6020808252600e908201527f506f6f6c206e6f7420666f756e64000000000000000000000000000000000000604082015260600190565b6101008101610f1e82846114c3565b90815260200190565b6001600160a01b0381168114610f7e57600080fdfea2646970667358221220d6fba1d19a18919344c422d74ffa8f48a8e53e8e2eb0b26e699ebfed4977be3c64736f6c63430007060033",
  "linkReferences": {},
  "deployedLinkReferences": {}
}