{
  "_format": "hh-sol-artifact-1",
  "contractName": "SingleSwapToken",
  "sourceName": "contracts/SwapToken.sol",
  "abi": [
    {
      "inputs": [
        {
          "internalType": "address",
          "name": "swapRouterAddress",
          "type": "address"
        },
        {
          "internalType": "address",
          "name": "token1",
          "type": "address"
        },
        {
          "internalType": "address",
          "name": "token2",
          "type": "address"
        },
        {
          "internalType": "uint256",
          "name": "amountIn",
          "type": "uint256"
        },
        {
          "internalType": "uint24",
          "name": "fee",
          "type": "uint24"
        }
      ],
      "name": "swapExactInputSingle",
      "outputs": [
        {
          "internalType": "uint256",
          "name": "amountOut",
          "type": "uint256"
        }
      ],
      "stateMutability": "nonpayable",
      "type": "function"
    },
    {
      "inputs": [
        {
          "internalType": "address",
          "name": "swapRouterAddress",
          "type": "address"
        },
        {
          "internalType": "address",
          "name": "token1",
          "type": "address"
        },
        {
          "internalType": "address",
          "name": "token2",
          "type": "address"
        },
        {
          "internalType": "uint256",
          "name": "amountOut",
          "type": "uint256"
        },
        {
          "internalType": "uint256",
          "name": "amountInMaximum",
          "type": "uint256"
        }
      ],
      "name": "swapExactOutputSingle",
      "outputs": [
        {
          "internalType": "uint256",
          "name": "amountIn",
          "type": "uint256"
        }
      ],
      "stateMutability": "nonpayable",
      "type": "function"
    }
  ],
  "bytecode": "0x608060405234801561001057600080fd5b506108c4806100206000396000f3fe608060405234801561001057600080fd5b50600436106100365760003560e01c80630889ebcb1461003b5780631fac181114610064575b600080fd5b61004e6100493660046107a0565b610077565b60405161005b9190610885565b60405180910390f35b61004e610072366004610738565b610195565b600061008585333085610294565b61009085878461041f565b60408051610100810182526001600160a01b0380881682528681166020830152610bb88284015233606083015242608083015260a0820186905260c08201859052600060e083015291517fdb3e2198000000000000000000000000000000000000000000000000000000008152909188169063db3e219890610116908490600401610870565b602060405180830381600087803b15801561013057600080fd5b505af1158015610144573d6000803e3d6000fd5b505050506040513d601f19601f8201168201806040525081019061016891906107f4565b91508282101561018b5761017e8688600061041f565b61018b86338486036105a1565b5095945050505050565b60006101a385333086610294565b6101ae85878561041f565b60408051610100810182526001600160a01b038088168252868116602083015262ffffff85168284015233606083015242608083015260a08201869052600060c0830181905260e083015291517f414bf389000000000000000000000000000000000000000000000000000000008152909188169063414bf38990610237908490600401610870565b602060405180830381600087803b15801561025157600080fd5b505af1158015610265573d6000803e3d6000fd5b505050506040513d601f19601f8201168201806040525081019061028991906107f4565b979650505050505050565b604080516001600160a01b0385811660248301528481166044830152606480830185905283518084039091018152608490920183526020820180516001600160e01b03167f23b872dd00000000000000000000000000000000000000000000000000000000178152925182516000948594938a169392918291908083835b602083106103315780518252601f199092019160209182019101610312565b6001836020036101000a0380198251168184511680821785525050505050509050019150506000604051808303816000865af19150503d8060008114610393576040519150601f19603f3d011682016040523d82523d6000602084013e610398565b606091505b50915091508180156103c65750805115806103c657508080602001905160208110156103c357600080fd5b50515b610417576040805162461bcd60e51b815260206004820152600360248201527f5354460000000000000000000000000000000000000000000000000000000000604482015290519081900360640190fd5b505050505050565b604080516001600160a01b038481166024830152604480830185905283518084039091018152606490920183526020820180516001600160e01b03167f095ea7b3000000000000000000000000000000000000000000000000000000001781529251825160009485949389169392918291908083835b602083106104b45780518252601f199092019160209182019101610495565b6001836020036101000a0380198251168184511680821785525050505050509050019150506000604051808303816000865af19150503d8060008114610516576040519150601f19603f3d011682016040523d82523d6000602084013e61051b565b606091505b5091509150818015610549575080511580610549575080806020019051602081101561054657600080fd5b50515b61059a576040805162461bcd60e51b815260206004820152600260248201527f5341000000000000000000000000000000000000000000000000000000000000604482015290519081900360640190fd5b5050505050565b604080516001600160a01b038481166024830152604480830185905283518084039091018152606490920183526020820180516001600160e01b03167fa9059cbb000000000000000000000000000000000000000000000000000000001781529251825160009485949389169392918291908083835b602083106106365780518252601f199092019160209182019101610617565b6001836020036101000a0380198251168184511680821785525050505050509050019150506000604051808303816000865af19150503d8060008114610698576040519150601f19603f3d011682016040523d82523d6000602084013e61069d565b606091505b50915091508180156106cb5750805115806106cb57508080602001905160208110156106c857600080fd5b50515b61059a576040805162461bcd60e51b815260206004820152600260248201527f5354000000000000000000000000000000000000000000000000000000000000604482015290519081900360640190fd5b80356001600160a01b038116811461073357600080fd5b919050565b600080600080600060a0868803121561074f578081fd5b6107588661071c565b94506107666020870161071c565b93506107746040870161071c565b925060608601359150608086013562ffffff81168114610792578182fd5b809150509295509295909350565b600080600080600060a086880312156107b7578081fd5b6107c08661071c565b94506107ce6020870161071c565b93506107dc6040870161071c565b94979396509394606081013594506080013592915050565b600060208284031215610805578081fd5b5051919050565b6001600160a01b0380825116835280602083015116602084015262ffffff60408301511660408401528060608301511660608401526080820151608084015260a082015160a084015260c082015160c08401528060e08301511660e0840152505050565b610100810161087f828461080c565b92915050565b9081526020019056fea2646970667358221220216db29092cce2b008800c6bf2bf276dc128b8f2da2c27bb6b8826801197d5ae64736f6c63430007060033",
  "linkReferences": {},
  "deployedLinkReferences": {}
}