{
  "_format": "hh-sol-artifact-1",
  "contractName": "SwapMultiHop",
  "sourceName": "contracts/SwapMultiHop.sol",
  "abi": [
    {
      "inputs": [],
      "name": "DAI",
      "outputs": [
        {
          "internalType": "address",
          "name": "",
          "type": "address"
        }
      ],
      "stateMutability": "view",
      "type": "function"
    },
    {
      "inputs": [],
      "name": "USDC",
      "outputs": [
        {
          "internalType": "address",
          "name": "",
          "type": "address"
        }
      ],
      "stateMutability": "view",
      "type": "function"
    },
    {
      "inputs": [],
      "name": "WETH9",
      "outputs": [
        {
          "internalType": "address",
          "name": "",
          "type": "address"
        }
      ],
      "stateMutability": "view",
      "type": "function"
    },
    {
      "inputs": [
        {
          "internalType": "address",
          "name": "token0",
          "type": "address"
        },
        {
          "internalType": "address",
          "name": "token1",
          "type": "address"
        },
        {
          "internalType": "uint256",
          "name": "amountIn",
          "type": "uint256"
        }
      ],
      "name": "swapExactInputMultiHop",
      "outputs": [
        {
          "internalType": "uint256",
          "name": "amountOut",
          "type": "uint256"
        }
      ],
      "stateMutability": "nonpayable",
      "type": "function"
    },
    {
      "inputs": [
        {
          "internalType": "address",
          "name": "token0",
          "type": "address"
        },
        {
          "internalType": "address",
          "name": "token1",
          "type": "address"
        },
        {
          "internalType": "uint256",
          "name": "amountOut",
          "type": "uint256"
        },
        {
          "internalType": "uint256",
          "name": "amountInMaximum",
          "type": "uint256"
        }
      ],
      "name": "swapExactOutputMultiHop",
      "outputs": [
        {
          "internalType": "uint256",
          "name": "amountIn",
          "type": "uint256"
        }
      ],
      "stateMutability": "nonpayable",
      "type": "function"
    },
    {
      "inputs": [],
      "name": "swapRouter",
      "outputs": [
        {
          "internalType": "contract ISwapRouter",
          "name": "",
          "type": "address"
        }
      ],
      "stateMutability": "view",
      "type": "function"
    }
  ],
  "bytecode": "0x608060405234801561001057600080fd5b50610a45806100206000396000f3fe608060405234801561001057600080fd5b50600436106100725760003560e01c8063c31c9c0711610050578063c31c9c07146100bd578063e0bab4c4146100c5578063f0e6f895146100cd57610072565b80634aa4a4fc14610077578063757464841461009557806389a30271146100b5575b600080fd5b61007f6100e0565b60405161008c91906109d8565b60405180910390f35b6100a86100a336600461085e565b6100f8565b60405161008c9190610a06565b61007f610216565b61007f61022e565b61007f610246565b6100a86100db366004610899565b61025e565b73c02aaa39b223fe8d0a0e5c4f27ead9083c756cc281565b6000610106843330856103ba565b6101258473e592427a0aece92de3edee1f18e0157c0586156484610545565b6040805160a081019091526000908061014587610bb88860c08501610985565b6040516020818303038152906040528152602001336001600160a01b031681526020014281526020018481526020016000815250905073e592427a0aece92de3edee1f18e0157c058615646001600160a01b031663c04b8d59826040518263ffffffff1660e01b81526004016101bb91906109ec565b602060405180830381600087803b1580156101d557600080fd5b505af11580156101e9573d6000803e3d6000fd5b505050506040513d601f19601f8201168201806040525081019061020d91906108da565b95945050505050565b73a0b86991c6218b36c1d19d4a2e9eb0ce3606eb4881565b73e592427a0aece92de3edee1f18e0157c0586156481565b736b175474e89094c44da98b954eedeac495271d0f81565b600061026c853330856103ba565b61028b8573e592427a0aece92de3edee1f18e0157c0586156484610545565b6040805160a08101909152600090806102aa8860648960c08501610985565b60408051601f198184030181529181529082523360208301524282820152606082018790526080909101859052517ff28c049800000000000000000000000000000000000000000000000000000000815290915073e592427a0aece92de3edee1f18e0157c058615649063f28c0498906103289084906004016109ec565b602060405180830381600087803b15801561034257600080fd5b505af1158015610356573d6000803e3d6000fd5b505050506040513d601f19601f8201168201806040525081019061037a91906108da565b9150828210156103b1576103a48573e592427a0aece92de3edee1f18e0157c058615646000610545565b6103b185338486036106c7565b50949350505050565b604080516001600160a01b0385811660248301528481166044830152606480830185905283518084039091018152608490920183526020820180516001600160e01b03167f23b872dd00000000000000000000000000000000000000000000000000000000178152925182516000948594938a169392918291908083835b602083106104575780518252601f199092019160209182019101610438565b6001836020036101000a0380198251168184511680821785525050505050509050019150506000604051808303816000865af19150503d80600081146104b9576040519150601f19603f3d011682016040523d82523d6000602084013e6104be565b606091505b50915091508180156104ec5750805115806104ec57508080602001905160208110156104e957600080fd5b50515b61053d576040805162461bcd60e51b815260206004820152600360248201527f5354460000000000000000000000000000000000000000000000000000000000604482015290519081900360640190fd5b505050505050565b604080516001600160a01b038481166024830152604480830185905283518084039091018152606490920183526020820180516001600160e01b03167f095ea7b3000000000000000000000000000000000000000000000000000000001781529251825160009485949389169392918291908083835b602083106105da5780518252601f1990920191602091820191016105bb565b6001836020036101000a0380198251168184511680821785525050505050509050019150506000604051808303816000865af19150503d806000811461063c576040519150601f19603f3d011682016040523d82523d6000602084013e610641565b606091505b509150915081801561066f57508051158061066f575080806020019051602081101561066c57600080fd5b50515b6106c0576040805162461bcd60e51b815260206004820152600260248201527f5341000000000000000000000000000000000000000000000000000000000000604482015290519081900360640190fd5b5050505050565b604080516001600160a01b038481166024830152604480830185905283518084039091018152606490920183526020820180516001600160e01b03167fa9059cbb000000000000000000000000000000000000000000000000000000001781529251825160009485949389169392918291908083835b6020831061075c5780518252601f19909201916020918201910161073d565b6001836020036101000a0380198251168184511680821785525050505050509050019150506000604051808303816000865af19150503d80600081146107be576040519150601f19603f3d011682016040523d82523d6000602084013e6107c3565b606091505b50915091508180156107f15750805115806107f157508080602001905160208110156107ee57600080fd5b50515b6106c0576040805162461bcd60e51b815260206004820152600260248201527f5354000000000000000000000000000000000000000000000000000000000000604482015290519081900360640190fd5b80356001600160a01b038116811461085957600080fd5b919050565b600080600060608486031215610872578283fd5b61087b84610842565b925061088960208501610842565b9150604084013590509250925092565b600080600080608085870312156108ae578081fd5b6108b785610842565b93506108c560208601610842565b93969395505050506040820135916060013590565b6000602082840312156108eb578081fd5b5051919050565b6001600160a01b03169052565b6000815160a0845280518060a0860152825b8181101561092e57602081840181015160c0888401015201610911565b8181111561093f578360c083880101525b506020840151915061095460208601836108f2565b6040848101519086015260608085015190860152608093840151938501939093525050601f01601f19160160c00190565b606093841b6bffffffffffffffffffffffff19908116825260e89390931b7fffffff0000000000000000000000000000000000000000000000000000000000166014820152921b166017820152602b0190565b6001600160a01b0391909116815260200190565b6000602082526109ff60208301846108ff565b9392505050565b9081526020019056fea2646970667358221220e431ede9ef6df324d3c9e78f0a9aceefb21bad4afeeb5ea00d456f9830ea643164736f6c63430007060033",
  "linkReferences": {},
  "deployedLinkReferences": {}
}