{
  "_format": "hh-sol-artifact-1",
  "contractName": "UserStorageData",
  "sourceName": "contracts/storeUserData.sol",
  "abi": [
    {
      "inputs": [
        {
          "internalType": "address",
          "name": "poolAddress",
          "type": "address"
        },
        {
          "internalType": "address",
          "name": "tokenAddress0",
          "type": "address"
        },
        {
          "internalType": "address",
          "name": "tokenAddress1",
          "type": "address"
        },
        {
          "internalType": "uint256",
          "name": "tokenId",
          "type": "uint256"
        }
      ],
      "name": "addToBlockchain",
      "outputs": [],
      "stateMutability": "nonpayable",
      "type": "function"
    },
    {
      "inputs": [
        {
          "internalType": "address",
          "name": "signer",
          "type": "address"
        }
      ],
      "name": "getAllTransactions",
      "outputs": [
        {
          "components": [
            {
              "internalType": "address",
              "name": "caller",
              "type": "address"
            },
            {
              "internalType": "address",
              "name": "poolAddress",
              "type": "address"
            },
            {
              "internalType": "address",
              "name": "tokenAddress0",
              "type": "address"
            },
            {
              "internalType": "address",
              "name": "tokenAddress1",
              "type": "address"
            },
            {
              "internalType": "uint256",
              "name": "tokenId",
              "type": "uint256"
            }
          ],
          "internalType": "struct UserStorageData.TransactionStruct[]",
          "name": "",
          "type": "tuple[]"
        }
      ],
      "stateMutability": "view",
      "type": "function"
    },
    {
      "inputs": [
        {
          "internalType": "uint256",
          "name": "_tokenId",
          "type": "uint256"
        }
      ],
      "name": "removeTransaction",
      "outputs": [],
      "stateMutability": "nonpayable",
      "type": "function"
    }
  ],
  "bytecode": "0x608060405234801561001057600080fd5b50610656806100206000396000f3fe608060405234801561001057600080fd5b50600436106100415760003560e01c806346c3bd1f14610046578063dab3b7aa1461005b578063ff0a839e14610084575b600080fd5b610059610054366004610588565b610097565b005b61006e61006936600461051d565b6101f1565b60405161007b91906105a0565b60405180910390f35b61005961009236600461053e565b610385565b60008054905b818110156101ec5782600082815481106100b357fe5b90600052602060002090600502016004015414156101e457600060018303815481106100db57fe5b9060005260206000209060050201600082815481106100f657fe5b6000918252602082208354600590920201805473ffffffffffffffffffffffffffffffffffffffff199081166001600160a01b039384161782556001808601549083018054831691851691909117905560028086015490830180548316918516919091179055600380860154908301805490921693169290921790915560049283015492019190915580548061018857fe5b600082815260208120600560001990930192830201805473ffffffffffffffffffffffffffffffffffffffff199081168255600182018054821690556002820180548216905560038201805490911690556004015590556101ec565b60010161009d565b505050565b6000805460609190815b8181101561024957846001600160a01b03166000828154811061021a57fe5b60009182526020909120600590910201546001600160a01b03161415610241576001909201915b6001016101fb565b5060008267ffffffffffffffff8111801561026357600080fd5b5060405190808252806020026020018201604052801561029d57816020015b61028a6104d8565b8152602001906001900390816102825790505b5090506000805b8381101561037857866001600160a01b0316600082815481106102c357fe5b60009182526020909120600590910201546001600160a01b0316141561037057600081815481106102f057fe5b60009182526020918290206040805160a081018252600590930290910180546001600160a01b03908116845260018201548116948401949094526002810154841691830191909152600381015490921660608201526004909101546080820152835184908490811061035e57fe5b60209081029190910101526001909101905b6001016102a4565b509093505050505b919050565b6040805160a0810182523381526001600160a01b0395861660208201908152948616918101918252928516606084019081526080840192835260008054600181018255908052935160059094027f290decd9548b62a8d60345a988386fc84ba6bc95484008f6362f93160ef3e5638101805495881673ffffffffffffffffffffffffffffffffffffffff1996871617905594517f290decd9548b62a8d60345a988386fc84ba6bc95484008f6362f93160ef3e5648601805491881691861691909117905590517f290decd9548b62a8d60345a988386fc84ba6bc95484008f6362f93160ef3e56585018054918716918516919091179055517f290decd9548b62a8d60345a988386fc84ba6bc95484008f6362f93160ef3e566840180549190951692169190911790925590517f290decd9548b62a8d60345a988386fc84ba6bc95484008f6362f93160ef3e56790910155565b6040805160a08101825260008082526020820181905291810182905260608101829052608081019190915290565b80356001600160a01b038116811461038057600080fd5b60006020828403121561052e578081fd5b61053782610506565b9392505050565b60008060008060808587031215610553578283fd5b61055c85610506565b935061056a60208601610506565b925061057860408601610506565b9396929550929360600135925050565b600060208284031215610599578081fd5b5035919050565b602080825282518282018190526000919060409081850190868401855b8281101561061357815180516001600160a01b0390811686528782015181168887015286820151811687870152606080830151909116908601526080908101519085015260a090930192908501906001016105bd565b509197965050505050505056fea2646970667358221220bd3e5cfeeb878d84f2aa56ec15ba1da5013064a78f34f07a81084ca28be80ee264736f6c63430007060033",
  "linkReferences": {},
  "deployedLinkReferences": {}
}